:060000000A128A11FC2F18
:100F3A0083160313061407110A3092000130831234
:100F4A00031395000C30970004309200F201F3016C
:100F5A00031006180314003003180130F000F101E1
:100F6A0073087106031DBB2F720870060319BE2F82
:100F7A00BF2FAD2F2730F100F530F000F00BC32F53
:100F8A00F10BC32F03108312031306180314003046
:100F9A0003180130F000F10173087106031DD72F01
:100FAA00720870060319DA2FDB2FAD2F031006180B
:100FBA000314003003180130F000F1017008F20048
:100FCA007108F30083160313120883120313150220
:100FDA000318F02FF12FF62F0130F0007008950753
:100FEA00AD2F01309500AD2F0A128A110028830116
:060FFA000A128A119D2F6E
:02400E007A3FF7
:00000001FF
