:060000000A128A110C280F
:10000800FE00030EF1000A08F2000A128A112E28D7
:100018000A128A110F2883010A128A1148288316A6
:1000280003131F13831203139F171F139F121F120B
:100038009F11831603139F17831203131F140C13A6
:10004800831603130C170B178B170D30F300F30BE4
:100058002B280800831203130C1F332834283C284C
:100068001E088800831603131E08831203138600D4
:100078000C130D30F000F00B3F2872088A00710E47
:100088008300FE0E7E0E09000A128A1113200A123E
:100098008A11831603138601880183121F08043806
:0A00A8009F0051280A128A110C284B
:08400000FF3FFF3FFF3FFF3FC0
:02400E00FA3F77
:00000001FF
