:060000000A128A110C280F
:10000800FE00030EF3000A08F4000A128A116E2893
:100018000A128A110F2883010A128A1113288316DB
:10002800031306148614061186118B170B168312F8
:100038000313A001A101A201A30103108618031450
:10004800003003180130F500F60123087606031D79
:100058002F282208750603193228332861284E30C4
:10006800F600EB30F500F50B3728F60B37280310B0
:100078008312031386180314003003180130F500A7
:10008800F60123087606031D4B2822087506031976
:100098004E284F28612803108618031400300318CF
:1000A8000130F500F6017508A2007608A3000130BA
:1000B800A0070318A10A0030A107201864286528A2
:1000C80068280615861121280611861521280A1286
:1000D8008A110C288B1C7128722888288312031314
:1000E800061586151530F2004B30F100BE30F000D1
:1000F800F00B7C28F10B7C28F20B7C280000831283
:100108000313061186118B1074088A00730E83007E
:06011800FE0E7E0E090040
:02400E007E3FF3
:00000001FF
