:0600000000F064EF00F0C7
:10000800FFFF5982D9CF31F0DACF32F09EAA0FEF35
:1000180000F012EF00F0FFFF5CEF00F0FFFFABA273
:1000280018EF00F01BEF00F0FFFF20EF00F0FFFFDC
:10003800AB98AB885CEF00F0FFFF000E586E30EF16
:1000480000F0FFFF270E5824D96EDA6A000EDA2274
:10005800DF50DDEC00F0582AFFFF270E5824D96E38
:10006800DA6A000EDA22DF50D8A43DEF00F040EF44
:1000780000F0FFFF25EF00F0FFFFC00E0CEC01F0D1
:10008800AECF57F05750DDEC00F0040E306ECF0EB7
:100098002F6EA50EFFFFE82EFDD72F2EFBD7302E93
:1000A800F9D700D0010E0CEC01F0800E0CEC01F039
:1000B800FFFF32C0DAFF31C0D9FF59921100FFFFAC
:1000C800C2EF00F0FFFFF28EF28CAB8EAC840C0E08
:1000D800AF6EAC98949C948E9D889D8AAB8820EED8
:1000E80001F010EE39F00D0EDBCFE3FFE806FCE27D
:1000F800000E956E000E936E380EF5EC00F00E0EA5
:10010800F5EC00F0010EF5EC00F0800EF5EC00F0D7
:1001180020EE1CF010EE47F00A0EDBCFE3FFE806F6
:10012800FCE2AC8A470E346E000E356EA1EC00F08E
:10013800FFFF9CEF00F064EF00F0FFFF0A0E386E3F
:10014800000E376E000E366EB4EF00F0FFFF34C0BD
:10015800D9FF35C0DAFFDF5039EC01F0344A352ACF
:10016800FFFF34503510D8A4BCEF00F0BFEF00F00B
:10017800FFFFAAEF00F0FFFF1200FFFF460EF66E2A
:10018800020EF76E000EF86E00EE01F010EE2CF085
:100198000900F5CFEEFFE550E150FAE100EE52F02C
:1001A800070EEE6AE806FDE159905992000166EFE4
:1001B80000F0FFFF2E6E2EC083FF81808192818424
:1001C800320EFFFFE82EFDD78194140E2D6E7D0EA2
:1001D800FFFFE82EFDD72D2EFBD700D01200FFFF22
:1001E800FFFFFFFF346E34C083FF819081928184CA
:1001F800320EFFFFE82EFDD78194140E336E7D0E6C
:10020800FFFFE82EFDD7332EFBD700D01200FFFFEB
:10021800FFFF2E6E2EC083FF819081928184320E63
:10022800FFFFE82EFDD78194140E2D6E7D0EFFFF83
:10023800E82EFDD72D2EFBD700D01200FFFF476F09
:100248006F64206D6F726E696E6721005472616E03
:10025800736D6974746564210041542B41444452A0
:100268003F0D0A00476F6F642100FFFF336E33C0F4
:08027800ADFF1200FFFFFFFFC4
:020000040020DA
:08000000FFFFFFFFFFFFFFFF00
:020000040030CA
:0E000000FF220F0EFF0181FF0FC00FE00F4027
:00000001FF
