:060000000A128A11FC2F18
:100F820083160313061086140611F201F301F4010D
:100F9200F501031083128618031400300318013080
:100FA200F000F10175087106031DD92F740870064F
:100FB2000319DC2FDD2FEF2F0310861803140030E6
:100FC20003180130F000F1017008F4007108F50017
:100FD2000130F2070318F30A0030F3077218F22FF8
:100FE200F32FF62F06140611CA2F06100615CA2F64
:0E0FF2000A128A11002883010A128A11C12FE7
:02400E007E3FF3
:00000001FF
