:060000000A128A110C280F
:10000800FE00030EF6000A08F7000A128A111728E4
:100018000A128A110F28F001F101F201F30183019C
:100028000A128A114228831203130C1C1C281D284B
:100038003B280130F0070318F10A0030F1071E30A1
:1000480070067104031D29282A283A2872087304A7
:1000580003192F283128013032280030F400F50127
:100068007408F2007508F300F001F1010C1077082C
:100078008A00760E8300FE0E7E0E09008316031397
:10008800061001308312031390008B170B17831689
:1000980003130C14721851285528831203130614DD
:1000A80058288312031306104E280A128A110C28A6
:02400E00FA3F77
:00000001FF
