:060000000A128A110C280F
:10000800FE00030EF0000A08F1000A128A111328F4
:100018000A128A110F2883010A128A112E288312C4
:1000280003130C1D18281928272808301706031D44
:100038001E281F28222809309700242808309700F6
:1000480010100C11101471088A00700E8300FE0E37
:100058007E0E09008B170B17831603130C15083037
:1000680083120313970030309000FF309600FF3062
:1000780095008316031307118312031310144328E2
:060088000A128A110C2887
:02400E007A3FF7
:00000001FF
