:060000000A128A11FC2F18
:100DFE00831203138C1E042F052FFF2E8C121A083C
:100E0E000800F2007208831203138800FE30F0000F
:100E1E0070088605FD30F000700886050615A630B0
:100E2E00F000F00B182F0000FB30F000700883125A
:100E3E00031386054130F100EE30F000F00B252F44
:100E4E00F10B252F0000080083160313861388016B
:100E5E00860138300A128A1108270A128A110E30BA
:100E6E000A128A1108270A128A1101300A128A11EF
:100E7E0008270A128A1180300A128A1108270A12CC
:100E8E008A11803083120313A0002530A1000A12AC
:100E9E008A115F270A128A110A128A11FF260A1274
:100EAE008A11831203138617532F0A128A110028F0
:100EBE008030831603138700203098009030831201
:100ECE00031398002008A2002108A3000030A31BE2
:100EDE00FF30A400A50006300310A20DA30DA40D33
:100EEE00A50DFF3E031D732F2508F3002408F20005
:100EFE002308F1002208F0000130F7003130F6002F
:100F0E002D30F5000030F4000A128A1196270A12CD
:100F1E008A117008FF3E83160313990008000030F3
:100F2E00FC000030FB000030FA000030F9007308BE
:100F3E007204710470040319A52FA62FF32FFD015F
:100F4E00FD0AB62F0130F8000310F00DF10DF20D71
:100F5E00F30DF80BAB2F0130F8007808FD07F31FE7
:100F6E00B92FBA2FA92F0130F8000310F90DFA0D81
:100F7E00FB0DFC0DF80BBC2F73087702031DD12F50
:100F8E0072087602031DD12F71087502031DD12F31
:100F9E0070087402031CD42FD52FE42F7008F402AE
:100FAE007108031C710FF5027208031C720FF60212
:100FBE007308031C730FF702791401300310F30C3E
:100FCE00F20CF10CF00CFF3E031DE52F0130FD027B
:100FDE00031DF22FF32FBA2F7C08F3007B08F200CB
:100FEE007A08F1007908F000080083010A128A11CC
:020FFE002B2F97
:02400E00FA3F77
:00000001FF
