:060000000A128A11EE2F26
:100D50000A128A11D9260A128A110030F600F70009
:100D60000A128A115B270A128A110A128A110028B4
:100D7000F401F501CA2E1A30F300F830F200F20B3C
:100D8000BF2EF30BBF2E00000130F4070318F50A45
:100D90000030F5077508803AF2007108803A720257
:100DA000031DD42E70087402031CD72ED82EBB2E20
:100DB00008008316031388018312031308103230CE
:100DC000F0000030F1000A128A11B8260A128A11C6
:100DD0008312031308128816081388133230F000A8
:100DE0000030F1000A128A11B8260A128A11831201
:100DF000031388146430F0000030F1000A128A11E5
:100E0000B8260A128A118312031388106430F00086
:100E10000030F1000A128A11B8260A128A118312D0
:100E2000031308123230F0000030F1000A128A1168
:100E3000B8260A128A118312031388143230F00084
:100E40000030F1000A128A11B8260A128A118312A0
:100E5000031388103230F0000030F1000A128A11BA
:100E6000B8260A128A118312031308168816081767
:100E700088173230F0000030F1000A128A11B826CB
:100E80000A128A118312031388143230F0000030E2
:100E9000F1000A128A11B8260A128A11831203136A
:100EA00088103230F0000030F1000A128A11B826A2
:100EB0000A128A110800831203130814FC01FD01B1
:100EC0007C087D04031D652F662F782F7708F900B5
:100ED0007608F8000430FF00790DF90CF80CFF0BD0
:100EE0006C2F0F307805FA0000307905FB007E2F5B
:100EF0000F307605FA0000307705FB007A087B0496
:100F0000031D832F842FDA2F8312031308148810F4
:100F10000811881108168816081388133230F0005B
:100F20000030F1000A128A11B8260A128A118312BF
:100F3000031388143230F0000030F1000A128A11D5
:100F4000B8260A128A118312031388103230F00077
:100F50000030F1000A128A11B8260A128A1183128F
:100F60000313081488100811881108128812081336
:100F700088133230F0000030F1000A128A11B826CE
:100F80000A128A118312031388143230F0000030E1
:100F9000F1000A128A11B8260A128A118312031369
:100FA00088103230F0000030F1000A128A11B826A1
:100FB0000A128A110130FC070318FD0A0030FD07F0
:100FC0007D08803AFF0080307F02031DE92F023048
:100FD0007C02031CEC2FED2F602F080083120313FB
:100FE000A001A101A201A301A401A501A601A701DD
:100FF000A801A901AA01AB0183010A128A11A82E36
:02400E00FE3F73
:00000001FF
