:060000000A128A11EA2F2A
:100DC400413454340034831203138C1EEA2EEB2E68
:100DD400E52E8C121A080800F000831203130C1E6F
:100DE400F42EF52EEF2E0C127008990083160313BF
:100DF400981CFD2EFE2E022F0A3083120313990035
:100E040083160313981C072F082F0C2F0D30831201
:100E140003139900080080308316031387002430DD
:100E2400980090308312031398002008A200210830
:100E3400A3000030A31BFF30A400A500043003105E
:100E4400A20DA30DA40DA50DFF3E031D212F250802
:100E5400F3002408F2002308F1002208F000013016
:100E6400F7003130F6002D30F5000030F4000A129E
:100E74008A1184270A128A117008831603139900B1
:100E84000800831203132C08A7002D08A8002E08BD
:100E9400A9000030A0009630A1000A128A110D2783
:100EA4000A128A1183120313AB01672F2B08273E02
:100EB400840000080A128A11EE260A128A110130EF
:100EC40083120313A6002608AB072B08273E8400D1
:100ED40083130008031D6F2F702F582F0A128A11D5
:100EE400E5260A128A1183120313A6002608AA0013
:100EF4002A080A128A11EE260A128A11702F0A127F
:100F04008A1100280030FC000030FB000030FA0099
:100F14000030F90073087204710470040319932FEC
:100F2400942FE12FFD01FD0AA42F0130F8000310D6
:100F3400F00DF10DF20DF30DF80B992F0130F800BF
:100F44007808FD07F31FA72FA82F972F0130F8006B
:100F54000310F90DFA0DFB0DFC0DF80BAA2F730805
:100F64007702031DBF2F72087602031DBF2F71087D
:100F74007502031DBF2F70087402031CC22FC32FF8
:100F8400D22F7008F4027108031C710FF502720865
:100F9400031C720FF6027308031C730FF702791413
:100FA40001300310F30CF20CF10CF00CFF3E031DA6
:100FB400D32F0130FD02031DE02FE12FA82F7C0861
:100FC400F3007B08F2007A08F1007908F0000800C9
:100FD4000A128A11E2260A128A11AC000A128A1134
:100FE400E3260A128A11AD000A128A11E4260A12B3
:0C0FF4008A11AE0083010A128A11432FFB
:02400E00FA3F77
:00000001FF
