:060000000A128A110C280F
:10000800FE00030EF0000A08F1000A128A118D287A
:100018000A128A110F28F801F90183010A128A11BC
:100028001528831603130608F83986000514CE3000
:100038009F008130831203139F000C138316031350
:100048000C170B178B1788170817881608128717AD
:10005800871207168530831203139F000812881F22
:10006800362837284C28071A3A283B284C280A12E1
:100078008A11C4200A128A110330F7000830F600EA
:100088007730F500F50B4628F60B4628F70B46287F
:1000980083120313081F5128522863280A128A1151
:1000A800C4200A128A110330F7000830F6007730AE
:1000B800F500F50B5D28F60B5D28F70B5D2883121C
:1000C8000313881E68286928762887120330F700EA
:1000D8000830F6007730F500F50B7028F60B70281D
:1000E800F70B702883120313871F7B287C282E2880
:1000F80087160330F7000830F6007730F500F50B67
:100108008328F60B8328F70B83282E280A128A11D6
:100118000C28831203130C1F92289328BD281E084D
:100128000319972898289C28071A9B289C28A028F8
:10013800061486140615BC2803301E06031DA528C0
:10014800A628AA28061086100611BC2802301E060A
:10015800031DAF28B028B428061486100611BC2841
:100168001E03031DB828B928BC28061486140611D6
:100178000C1371088A00700E8300FE0E7E0E0900B3
:100188000330F4000830F3007730F200F20BCA288D
:10019800F30BCA28F40BCA28831203130816663017
:1001A800F4007630F300C130F200F20BD928F30BDB
:0E01B800D928F40BD92883120313081208006B
:02400E00FE3F73
:00000001FF
